:100000000C94BE000C94DB000C94DB000C94DB0021
:100010000C94DB000C94DB000C94DB000C94DB00F4
:100020000C94DB000C94DB000C94DB000C94D701E7
:100030000C94DB000C9425060C94DB000C94DB0084
:100040000C94DB000C94DB000C94DB000C94DB00C4
:100050000C9468010C94F5010C94F5010C94DB00F0
:100060000C94DB000C94DB000C94DB000C94DB00A4
:100070000C94DB000C94DB000C94DB0000070E09F1
:100080001C1B1215383F363124232A2D70777E79B8
:100090006C6B6265484F464154535A5DE0E7EEE9A8
:1000A000FCFBF2F5D8DFD6D1C4C3CACD90979E9998
:1000B0008C8B8285A8AFA6A1B4B3BABDC7C0C9CE88
:1000C000DBDCD5D2FFF8F1F6E3E4EDEAB7B0B9BE78
:1000D000ABACA5A28F88818693949D9A2720292E68
:1000E0003B3C35321F18111603040D0A5750595E58
:1000F0004B4C45426F68616673747D7A898E878048
:1001000095929B9CB1B6BFB8ADAAA3A4F9FEF7F037
:10011000E5E2EBECC1C6CFC8DDDAD3D4696E676027
:1001200075727B7C51565F584D4A4344191E171017
:1001300005020B0C21262F283D3A33344E49404707
:1001400052555C5B7671787F6A6D64633E393037F7
:1001500022252C2B0601080F1A1D1413AEA9A0A7E7
:10016000B2B5BCBB9691989F8A8D8483DED9D0D7D7
:10017000C2C5CCCBE6E1E8EFFAFDF4F311241FBED3
:10018000CFEFD8E0DEBFCDBF11E0A0E0B1E0EAE202
:10019000FEE002C005900D92AC34B107D9F716E02D
:1001A000ACE4B1E001C01D92A031B107E1F70E94BB
:1001B000F8060C9413070C940000CF93DF9314BE41
:1001C00088E10FB6F89480936000109260000FBE33
:1001D00085E290E090936B0380936A0384E290E061
:1001E000909369038093680383E290E090936703A0
:1001F0008093660380E2809365038BE290E09093A6
:100200005D0380935C038AE290E090935B038093AC
:100210005A0382E08093590381E08093580389E078
:1002200090E09093C5008093C40088E98093C1005A
:1002300086E08093C2001092B00084E08093B10009
:100240001092700080E090E00E94FD06C6E5D3E0C9
:10025000888381E090E00E94FD0689836AEA82E05B
:1002600090E00E94050780E091E090935503809311
:10027000540384E2809353030E941003809165032A
:10028000E0916803F09169039081892B80838091CC
:100290006503E0916A03F0916B0390818095892357
:1002A000808380915903E0915A03F0915B03908120
:1002B000892B808380915803E0915A03F0915B036E
:1002C00090818095892380837894DF91CF910895E0
:1002D0001F920F920FB60F9211248F939F93EF935B
:1002E000FF931092B2001092520181E0809370004F
:1002F0008091C60080935101E0915401F0E0EB5AE7
:10030000FE4F8083F69A90915401943029F48091A5
:1003100051018093500111C0943078F4E0914F0165
:1003200080915101E827F0E0E458FF4FE491E09319
:100330004F019F5F9093540131C0809150019817F5
:1003400068F3809155018A3849F490914F0180916A
:100350005101981303C010927000F79A80915501D3
:100360008834A9F490914F018091510198130FC0E6
:100370009091560180915603981309C090915701AE
:1003800080915703981303C010927000F79A10924F
:100390007000F6981092540110924F01FF91EF9166
:1003A0009F918F910F900FBE0F901F9018951F92E5
:1003B0000F920FB60F9211248F93809152018130CA
:1003C00059F4109252011092540110924F01F69874
:1003D000F7981092700003C08F5F809352018F9145
:1003E0000F900FBE0F901F9018951F920F920FB68F
:1003F0000F9211248F93EF93FF9380E48093C000BA
:1004000088E58093C100F59AE091530180914D01F8
:10041000E817A0F4F0E0EC5AFD4F808180934E0184
:100420008093C600E0914C0180914E01E827F0E0F6
:10043000E458FF4FE491E0934C0106C0E8130AC072
:1004400080914C018093C600809153018F5F80930F
:10045000530108C088E98093C100F59810925301B8
:1004600010924C01FF91EF918F910F900FBE0F9062
:100470001F9018951092530110924C01E4E5F2E0A0
:10048000848180934D01A6E5B3E08C918183119620
:100490008C91828388E38093C1000895E4E5F2E0C3
:1004A00098E4908383836B5F64830C943A02E4E561
:1004B000F2E09AE8908383836B5F64830C943A0242
:1004C00080916503E0916A03F0916B039081892B21
:1004D000808380E693EEA6E1B0E026E02A95F1F76E
:1004E00000000197A109B109C1F780916503E0916E
:1004F0006A03F0916B03908180958923808308952E
:100500006091530380915403A9E5B2E0E82FF09184
:1005100055039E2F981B961718F491919D93F9CF30
:1005200085E00C944E0260915A01609356038091CD
:100530005B018093570380E090E00E940507609183
:10054000570381E090E00E9405076091530380917A
:100550005403A9E5B2E0E82FF09155039E2F981BB4
:10056000961718F491919D93F9CF86E00C94570259
:10057000CF93DF93C4E5D2E081E48D8382E090E005
:100580000E94FD068E8362E081E0DF91CF910C94A2
:100590004E02F89498E088E10FB6F894A8958093FD
:1005A00060000FBE90936000FFCFF79B1AC0F798D2
:1005B00080915801863079F030F4813051F08530E7
:1005C00071F40C948002873041F08F3F41F40E9417
:1005D000C9020C94B8020C9493020C9460020C941F
:1005E0000E0608950E94D5020C949505909355032C
:1005F00080935403615060935303089582E0809385
:100600006F00089510926F0008950895089586E090
:100610008A95F1F700000895469A149A289A089549
:1006200066E285E291E00E94F60285E290E0909316
:100630006B0380936A0384E290E090936903809354
:10064000680383E290E0909367038093660380E100
:10065000809365038BE290E090935D0380935C034D
:100660008AE290E090935B0380935A0381E0809349
:10067000580392E09093590387B1806387B988B19A
:10068000806388B981B1806681B982B1806682B9A0
:1006900081B1836081B982B1836082B93B9A3A9A11
:1006A0000F9A3F9A0A9A0B9A3E9A0C9A209A239A8A
:1006B0002B9883E884BD84E085BD17BC10926E0042
:1006C000219A299824E52093B8001092B9008093CC
:1006D000BC001092800089E08093810020E834E023
:1006E000309389002093880090936F0086E08A956C
:1006F000F1F700000C940C0346981498289808957C
:10070000813051F018F0823069F00895611102C013
:1007100042980895429A0895611102C04798089539
:10072000479A0895611102C013980895139A089585
:1007300080FD439A81FD179A82FD129A86E08A9580
:10074000F1F7000043981798129808956B5FE62F11
:10075000F0E0EC5AFD4F8083918308954B5FE42FC6
:10076000F0E0EC5AFD4F60837183828308950C940E
:10077000AE038B5FE82FF0E0EB5AFE4F20816181E2
:10078000862F90E0A0E0B0E04427582F692F7A2F01
:10079000828190E0A0E0B0E0DC0199278827840FF7
:1007A000951FA61FB71FBC01CD01620F711D811DD2
:1007B000911D08950E94B9036115710520E8820713
:1007C000910508F09A95089580916D038F5F8032AE
:1007D00009F480E090916E03891721F080936D03F6
:1007E00081E0089580E00895EF92FF920F931F93A8
:1007F000CF93C0916D03CF5FC03209F4C0E0809108
:100800006E03C81709F43FC0E12CF12C83E1C89FA7
:10081000800111248E2D880F8E0D0E94DA03DC01D9
:10082000CB0122E0880F991FAA1FBB1F2A95D1F781
:10083000F701EE0FFF1FEE0FFF1FE00FF11FE15951
:10084000FC4F80839183A283B3838FEFE81AF80A69
:1008500083E0E816F104F1F689E00E94B903F8019B
:10086000E159FC4F64877587868797878091660179
:10087000808B80916701818B80916801828BC0930E
:100880006D0381E001C080E0CF911F910F91FF9037
:10089000EF900895BF92CF92DF92EF92FF920F9365
:1008A0001F93CF93DF9390916E0380916D03981700
:1008B00009F4D3C080916E038F5F803209F480E029
:1008C00093E1899FF0011124E159FC4F9289913005
:1008D00019F49093DB05C1C01092DB0520916C03E5
:1008E00090916E03291302C080936C0380936E0372
:1008F000C0E0D0E013E15DE0B52E0FEF8C2F9091BA
:100900006E039E01220F331F220F331FF901199F1F
:10091000E00DF11D1124E159FC4FC080D180E2802F
:10092000F380E0916E031E9FF0011124E159FC4F0A
:100930009189913059F4F901E153FA4F4081518185
:1009400062817381C41AD50AE60AF70A1C141D04D1
:100950001E041F046CF461E00E948003BC9EF00141
:10096000BD9EF00D1124E751FA4F81E0848713C03A
:10097000F094E094D094C094C11CD11CE11CF11CF3
:1009800060E00E948003BC9EF001BD9EF00D11242A
:10099000E751FA4F0487BC9EF001BD9EF00D112473
:1009A000E751FA4FC482D582E682F782C082D182B3
:1009B000E282F38210861186128613862196C33056
:1009C000D10509F09BCFE0916E0383E18E9FF0018A
:1009D0001124E159FC4F90899093DC05E0916E035E
:1009E0008E9FF0011124E159FC4F448555856685A1
:1009F000778576956795579547954093E50550938C
:100A0000E6056093E7057093E805E0916E038E9F1D
:100A1000F0011124E159FC4F4485558566857785A1
:100A20004093DD055093DE056093DF057093E0058C
:100A3000E0916E038E9FF0011124E159FC4F8485F3
:100A40009585A685B7858093E1059093E205A093EF
:100A5000E305B093E40581E001C080E0DF91CF9130
:100A60001F910F91FF90EF90DF90CF90BF9008956E
:100A70001F93CF93DF93182FC4E5D2E06D8380914D
:100A8000DC058E836091E1057091E2058091E305BC
:100A90009091E40542E00E94AE0380916E038A8744
:100AA00080916D038B8767E0812FDF91CF911F913C
:100AB0000C944E0288EE9DEF2091BC0027FD02C0F1
:100AC0000197D1F7089584EA8093BC000E945A05EB
:100AD0008091B900883019F08091B900089580E0C4
:100AE00008958093BB0084E88093BC000E945A055F
:100AF0008091B900883119F08091B900089580E0A3
:100B000008958093BB0084E88093BC000E945A053E
:100B10008091B900883219F08091B900089580E081
:100B2000089584E98093BC0008950895CF93DF93DE
:100B3000C0915A01D0915B010E946305811118C0D8
:100B40008EE50E947105811113C0C13039F020F08B
:100B5000C23049F480E603C080E101C080E00E9419
:100B60008105811105C08D2F0E948105882319F010
:100B70008093590205C084E98093BC001092590209
:100B800061E08BE0DF91CF910C944E0280915A018D
:100B9000882319F00E947C0302C00E940C0360E0CD
:100BA0008CE00C944E020E94F403682F8DE00C94AC
:100BB0003805CF93DF93C0E0D0E0FE01EE0FFF1FBA
:100BC000EE0FFF1FE153FA4F80819181A281B38123
:100BD0004C2F440F4C0FBC01CD0122E09595879519
:100BE000779567952A95D1F70E94AE032196C33079
:100BF000D10519F769E08EE0DF91CF910C944E0298
:100C000061E08FE00C94380580915A0187BD87B56B
:100C10008093590261E080E10C944E028D3079F0AE
:100C200028F48B3041F08C3041F008958E3049F03B
:100C30008F3049F008950C9496050C94C6050C94D9
:100C4000D3050C94D9050C9400061F920F920FB691
:100C50000F921124CF92DF92EF92FF922F933F9346
:100C60004F935F936F937F938F939F93AF93BF93B4
:100C7000EF93FF938091E1059091E205A091E30548
:100C8000B091E405892B8A2B8B2B09F48AC08091C3
:100C9000E1059091E205A091E305B091E40501978B
:100CA000A109B1098093E1059093E205A093E305C2
:100CB000B093E40520E030E080E09DE0A1E0B0E00A
:100CC000929FF001939FF00D1124E751FA4F448158
:100CD000558166817781C084D184E284F3844C0D90
:100CE0005D1D6E1D7F1D4087518762877387C0849D
:100CF000D184E284F3844091E5055091E60560914A
:100D0000E7057091E8054C155D056E057F050CF053
:100D100040C0C090DD05D090DE05E090DF05F0908A
:100D2000E00540855185628573854C195D096E0922
:100D30007F094087518762877387AD01022E01C00A
:100D4000440F0A94EAF7840F4081518162817381D4
:100D50004150510961097109408351836283738352
:100D60004485F901EE0FFF1FEE0FFF1FE153FA4F0D
:100D7000C080D180E280F380552747FD5095652FD4
:100D8000752F4C0D5D1D6E1D7F1D40835183628349
:100D900073832F5F3F4F2330310509F091CF0E94BD
:100DA00098038091E1059091E205A091E305B0914F
:100DB000E405892B8A2B8B2B31F40E944A04813065
:100DC00011F40E947C03FF91EF91BF91AF919F912D
:100DD0008F917F916F915F914F913F912F91FF90F4
:100DE000EF90DF90CF900F900FBE0F901F9018954F
:100DF0000E94DD000E94F202FDCFF999FECF92BD64
:100E000081BDF89A992780B50895262FF999FECFCC
:100E10001FBA92BD81BD20BD0FB6F894FA9AF99A17
:0A0E20000FBE01960895F894FFCF6D
:100E2A00687474703A2F2F74712E6D69742E65640C
:100E3A00752F67657374616C742F3038362D3030B6
:100E4A00302E707900687474703A2F2F7777772E66
:100E5A0066616275696E742E636F6D2F766E2F30C0
:0C0E6A0039362D303031622E70790000D6
:00000001FF
