:100000000C94BE000C94DB000C94DB000C94DB0021
:100010000C94DB000C94DB000C94DB000C94DB00F4
:100020000C94DB000C94DB000C94DB000C94D701E7
:100030000C94DB000C94D3040C94DB000C94DB00D8
:100040000C94DB000C94DB000C94DB000C94DB00C4
:100050000C9468010C94F5010C94F5010C94DB00F0
:100060000C94DB000C94DB000C94DB000C94DB00A4
:100070000C94DB000C94DB000C94DB0000070E09F1
:100080001C1B1215383F363124232A2D70777E79B8
:100090006C6B6265484F464154535A5DE0E7EEE9A8
:1000A000FCFBF2F5D8DFD6D1C4C3CACD90979E9998
:1000B0008C8B8285A8AFA6A1B4B3BABDC7C0C9CE88
:1000C000DBDCD5D2FFF8F1F6E3E4EDEAB7B0B9BE78
:1000D000ABACA5A28F88818693949D9A2720292E68
:1000E0003B3C35321F18111603040D0A5750595E58
:1000F0004B4C45426F68616673747D7A898E878048
:1001000095929B9CB1B6BFB8ADAAA3A4F9FEF7F037
:10011000E5E2EBECC1C6CFC8DDDAD3D4696E676027
:1001200075727B7C51565F584D4A4344191E171017
:1001300005020B0C21262F283D3A33344E49404707
:1001400052555C5B7671787F6A6D64633E393037F7
:1001500022252C2B0601080F1A1D1413AEA9A0A7E7
:10016000B2B5BCBB9691989F8A8D8483DED9D0D7D7
:10017000C2C5CCCBE6E1E8EFFAFDF4F311241FBED3
:10018000CFEFD8E0DEBFCDBF11E0A0E0B1E0ECEDF5
:10019000FDE002C005900D92A235B107D9F715E038
:1001A000A2E5B1E001C01D92AF3CB107E1F70E94AA
:1001B000D1060C94EC060C940000CF93DF9314BE90
:1001C00088E10FB6F89480936000109260000FBE33
:1001D00085E290E0909371038093700384E290E055
:1001E00090936F0380936E0383E290E090936D038E
:1001F00080936C0380E280936B038BE290E090939A
:100200006303809362038AE290E09093610380939A
:10021000600382E080935F0381E080935E0389E066
:1002200090E09093C5008093C40088E98093C1005A
:1002300086E08093C2001092B00084E08093B10009
:100240001092700080E090E00E94D606CCE5D3E0EA
:10025000888381E090E00E94D60689836AEA82E082
:1002600090E00E94DE0680E091E090935B03809333
:100270005A0384E2809359030E94FE0280916B032B
:10028000E0916E03F0916F039081892B80838091C0
:100290006B03E0917003F091710390818095892345
:1002A000808380915F03E0916003F091610390810E
:1002B000892B808380915E03E0916003F09161035C
:1002C00090818095892380837894DF91CF910895E0
:1002D0001F920F920FB60F9211248F939F93EF935B
:1002E000FF931092B2001092580181E08093700049
:1002F0008091C60080935701E0915A01F0E0E55AE1
:10030000FE4F8083F69A90915A01943029F480919F
:1003100057018093560111C0943078F4E091550153
:1003200080915701E827F0E0E458FF4FE491E09313
:1003300055019F5F90935A0131C0809156019817E3
:1003400068F380915B018A3849F49091550180915E
:100350005701981303C010927000F79A80915B01C7
:100360008834A9F4909155018091570198130FC0DA
:1003700090915C0180915C03981309C090915D019C
:1003800080915D03981303C010927000F79A109249
:100390007000F69810925A0110925501FF91EF915A
:1003A0009F918F910F900FBE0F901F9018951F92E5
:1003B0000F920FB60F9211248F93809158018130C4
:1003C00059F41092580110925A0110925501F69862
:1003D000F7981092700003C08F5F809358018F913F
:1003E0000F900FBE0F901F9018951F920F920FB68F
:1003F0000F9211248F93EF93FF9380E48093C000BA
:1004000088E58093C100F59AE091590180915301EC
:10041000E817A0F4F0E0E65AFD4F80818093540184
:100420008093C600E091520180915401E827F0E0EA
:10043000E458FF4FE491E093520106C0E8130AC06C
:10044000809152018093C600809159018F5F809303
:10045000590108C088E98093C100F59810925901AC
:1004600010925201FF91EF918F910F900FBE0F905C
:100470001F9018951092590110925201EAE5F2E08E
:10048000848180935301ACE5B3E08C918183119614
:100490008C91828388E38093C1000895EAE5F2E0BD
:1004A00098E4908383836B5F64830C943A02EAE55B
:1004B000F2E09AE8908383836B5F64830C943A0242
:1004C00080916B03E0917003F09171039081892B0F
:1004D000808380E693EEA6E1B0E026E02A95F1F76E
:1004E00000000197A109B109C1F780916B03E09168
:1004F0007003F09171039081809589238083089522
:100500006091590380915A03AFE5B2E0E82FF09172
:100510005B039E2F981B961718F491919D93F9CF2A
:1005200085E00C944E026091600160935C038091C1
:10053000610180935D0380E090E00E94DE0660919F
:100540005D0381E090E00E94DE0660915903809196
:100550005A03AFE5B2E0E82FF0915B039E2F981BA2
:10056000961718F491919D93F9CF86E00C94570259
:10057000CF93DF93CAE5D2E081E48D8382E090E0FF
:100580000E94D6068E8362E081E0DF91CF910C94C9
:100590004E02F89498E088E10FB6F894A8958093FD
:1005A00060000FBE90936000FFCFF79B1AC0F798D2
:1005B00080915E01863079F030F4813051F08530E1
:1005C00071F40C948002873041F08F3F41F40E9417
:1005D000C9020C94B8020C9493020C9460020C941F
:1005E000B90408950E94D5020C94680390935B03AC
:1005F00080935A03615060935903089566E28BE239
:1006000091E00E94F60285E290E09093710380935E
:10061000700384E290E090936F0380936E0383E213
:1006200090E090936D0380936C0380E180936B0363
:100630008BE290E090936303809362038AE290E000
:10064000909361038093600381E080935E0392E066
:1006500090935F0387B1806387B988B1806388B95D
:1006600081B1806681B982B1806682B981B18360CF
:1006700081B982B1836082B93B9A3A9A0F9A3F9AC4
:100680000A9A0B9A3E9A469A0C9A149A209A289A99
:10069000239A2B9883E884BD84E085BD17BC109213
:1006A0006E00219A299824E52093B8001092B90091
:1006B0008093BC001092800089E08093810029E93A
:1006C00033E0309389002093880090936F00089561
:1006D000089588EE9DEF2091BC0027FD02C0019790
:1006E000D1F7089584EA8093BC000E946903809149
:1006F000B900883019F08091B900089580E008951C
:100700008093BB0084E88093BC000E9469038091C1
:10071000B900883119F08091B900089580E00895FA
:100720008093BB0084E88093BC000E9469038091A1
:10073000B900883219F08091B900089580E00895D9
:1007400084E98093BC000895CF93DF93C09160014A
:10075000D09161010E947203811118C08EE50E9440
:100760008003811113C0C13039F020F0C23049F448
:1007700080E603C080E101C080E00E949003811107
:1007800005C08D2F0E949003882319F080935F028B
:1007900005C084E98093BC0010925F0261E084E1AF
:1007A000DF91CF910C944E02CF93DF9300D0CDB761
:1007B000DEB746981498289860E085E10E944E02C2
:1007C0001A821982439A179A129A26E02A95F1F70B
:1007D00000004398179812988FEF91E10197F1F775
:1007E00000C0000089819A8101969A83898389815A
:1007F0009A818838934131F7469A149A289A0F9033
:100800000F90DF91CF910895CF93C0918D03CF5F6B
:10081000C03409F4C0E080918E03C81327C0109241
:100820005F02E0918E0389E0E89FF0011124E15717
:10083000FC4F8081809360028091870390918803B0
:100840002091290102C0969587952A95E2F7809319
:10085000610280918E038093620280918D03809368
:10086000630265E086E1CF910C944E0280912A01EB
:100870008F5F80932A0190912A0189E08C9FF0017B
:100880001124E157FC4F90839091600191839091E6
:1008900061019283909162019383909163019483AB
:1008A0009091640195839091650196839091660182
:1008B000978390916701908791E090935F02E09118
:1008C0008E038E9FF0011124E157FC4F80818093AD
:1008D000600280918703909188032091290102C0D2
:1008E000969587952A95E2F78093610280918E0311
:1008F00080936202C093630265E086E10E944E022B
:10090000C0938D03CF910895EAE5F2E081E08583FD
:10091000A0918E0389E0A89FD0011124A157BC4F5C
:100920008C9186838091870390918803209129017F
:1009300002C0969587952A95E2F7878380918E036A
:10094000808780918D03818765E087E10C944E025A
:10095000469A149A289A60E088E10C944E0280919D
:10096000600187BD87B580935F0261E089E10C94E7
:100970004E02863181F028F4843149F0853149F006
:100980000895883161F048F0893159F008950C9448
:10099000A4030C94D4030C9404040C9484040C94C9
:1009A000A8040C94AF041F920F920FB60F9211245B
:1009B0002F933F934F935F936F937F938F939F9367
:1009C000AF93BF93EF93FF93809187039091880338
:1009D000892B09F41FC12091790330917A0380910A
:1009E0008B0390918C034091870350918803841B63
:1009F000950B8217930778F4209176038091250157
:100A000090912601A0912701B0912801820F911D9C
:100A1000A11DB11D2BC020917703309178038091E7
:100A20008703909188032817390788F140912501A1
:100A300050912601609127017091280180917603E1
:100A400090E0A0E0B0E084179507A607B707B8F4D8
:100A5000209176038091250190912601A091270194
:100A6000B0912801821B9109A109B1098093250148
:100A700090932601A0932701B093280108C01092FB
:100A800025011092260110922701109228018091D1
:100A9000250190912601A0912701B0912801409154
:100AA0007203509173036091740370917503840F06
:100AB000951FA61FB71F8093720390937303A09393
:100AC0007403B09375038091720390917303A091A6
:100AD0007403B09175030197A041B10508F450C1AA
:100AE0008091870390918803019790938803809366
:100AF00087038091720390917303A0917403B09166
:100B0000750350978093720390937303A0937403BB
:100B1000B0937503809185039091860320917F03A4
:100B200030918003820F931F9093800380937F0303
:100B3000809183039091840320917D0330917E0303
:100B4000820F931F90937E0380937D038091810396
:100B50009091820320917B0330917C03820F931F3D
:100B600090937C0380937B0320917F0330918003DB
:100B70008091890390918A03821793077CF4439AAA
:100B800020918B0330918C0380917F03909180039F
:100B9000821B930B9093800380937F0320917D03AE
:100BA00030917E038091890390918A038217930785
:100BB0007CF4179A20918B0330918C0380917D03F4
:100BC00090917E03821B930B90937E0380937D0311
:100BD00020917B0330917C038091890390918A035B
:100BE000821793077CF4129A20918B0330918C0327
:100BF00080917B0390917C03821B930B90937C03E9
:100C000080937B0386E08A95F1F70000439817985C
:100C10001298B6C090918D0380918E03981709F4B5
:100C2000AFC046981498289880918E038F5F809368
:100C30008E0380918E03803411F410928E03E09124
:100C40008E0389E08E9FF0011124E157FC4F218132
:100C50009091290130E002C0220F331F9A95E2F7EC
:100C600030938C0320938B0320918B0330918C0362
:100C70003695279530938A032093890320918B031F
:100C800030918C033093880320938703E0918E0387
:100C90008E9FF0011124E157FC4F828182FF02C038
:100CA000429A01C04298E0918E0329E0E29FF00150
:100CB0001124E157FC4F828181FF02C0479A01C095
:100CC0004798E0918E0389E0E89FF0011124E157F5
:100CD000FC4F828180FF02C0139A01C01398E091FB
:100CE0008E0389E08E9FF0011124E157FC4F238190
:100CF0009091290130E002C0220F331F9A95E2F74C
:100D00003093860320938503E0918E038E9FF0013C
:100D10001124E157FC4F24819091290130E002C059
:100D2000220F331F9A95E2F73093840320938303B5
:100D3000E0918E038E9FF0011124E157FC4F8581D5
:100D40002091290190E002C0880F991F2A95E2F7AF
:100D500090938203809381031092800310927F030B
:100D600010927E0310927D0310927C0310927B03FD
:100D70001092720310927303109274031092750311
:100D8000FF91EF91BF91AF919F918F917F916F9163
:100D90005F914F913F912F910F900FBE0F901F9039
:100DA00018950E94DD000E94F202FDCFF999FECF56
:100DB00092BD81BDF89A992780B50895262FF9999B
:100DC000FECF1FBA92BD81BD20BD0FB6F894FA9A2E
:0C0DD000F99A0FBE01960895F894FFCF29
:100DDC00687474703A2F2F74712E6D69742E65645B
:100DEC00752F67657374616C742F3038362D303005
:100DFC00302E70790050C3000002FF687474703A92
:100E0C002F2F7777772E666162756E69742E636FFC
:100E1C006D2F766E2F3039362D303031612E707942
:020E2C000000C4
:00000001FF
