:100000000C94B4000C94D1000C94D1000C94D10049
:100010000C94D1000C94D1000C94D1000C94D1001C
:100020000C94D1000C94EA010C94D1000C9460065D
:100030000C94D1000C94D1000C94D1000C94D100FC
:100040000C94D1000C94D1000C947B010C94080208
:100050000C9408020C94D1000C94D1000C94D100A3
:100060000C94D1000C94D10000070E091C1B121532
:10007000383F363124232A2D70777E796C6B626588
:10008000484F464154535A5DE0E7EEE9FCFBF2F578
:10009000D8DFD6D1C4C3CACD90979E998C8B828568
:1000A000A8AFA6A1B4B3BABDC7C0C9CEDBDCD5D258
:1000B000FFF8F1F6E3E4EDEAB7B0B9BEABACA5A248
:1000C0008F88818693949D9A2720292E3B3C353238
:1000D0001F18111603040D0A5750595E4B4C454228
:1000E0006F68616673747D7A898E878095929B9C18
:1000F000B1B6BFB8ADAAA3A4F9FEF7F0E5E2EBEC08
:10010000C1C6CFC8DDDAD3D4696E676075727B7CF7
:1001100051565F584D4A4344191E171005020B0CE7
:1001200021262F283D3A33344E49404752555C5BD7
:100130007671787F6A6D64633E39303722252C2BC7
:100140000601080F1A1D1413AEA9A0A7B2B5BCBBB7
:100150009691989F8A8D8483DED9D0D7C2C5CCCBA7
:10016000E6E1E8EFFAFDF4F311241FBECFEFD8E08B
:10017000DEBFCDBF11E0A0E0B1E0E2EBFEE002C0E7
:1001800005900D92AC34B107D9F715E0ACE4B1E0BD
:1001900001C01D92A33AB107E1F70E942A070C940F
:1001A00057070C940000CF93DF9314BE88E10FB67D
:1001B000F89480936000109260000FBE85E290E09A
:1001C0009093700380936F0384E290E090936E03AA
:1001D00080936D0383E290E090936C0380936B03B4
:1001E00080E280936A038BE290E0909362038093B5
:1001F00061038AE290E09093600380935F0382E062
:1002000080935E0381E080935D0389E090E09093AA
:10021000C5008093C40088E98093C10086E0809384
:10022000C2001092B00084E08093B1001092700080
:1002300080E090E00E942F07C6E5D3E0888381E04C
:1002400090E00E942F0789836AEA82E090E00E9492
:10025000490780E091E0909355038093540384E232
:10026000809353030E94DB0380916A03E0916D0346
:10027000F0916E039081892B808380916A03E091D5
:100280006F03F09170039081809589238083809122
:100290005E03E0915F03F09160039081892B80837E
:1002A00080915D03E0915F03F09160039081809500
:1002B0008923808380916303E0916603F091670353
:1002C000908180958923808380915803E091590320
:1002D000F0915A039081892B808380915803E0919B
:1002E0005B03F0915C0390818095892380837894EF
:1002F000DF91CF9108951F920F920FB60F921124A4
:100300008F939F93EF93FF931092B200109252013C
:1003100081E0809370008091C60080935101E0914C
:100320005401F0E0EB5AFE4F8083F69A909154010D
:10033000943029F4809151018093500111C0943080
:1003400078F4E0914F0180915101E827F0E0E859FD
:10035000FF4FE491E0934F019F5F9093540131C0B0
:1003600080915001981768F3809155018A3849F4BB
:1003700090914F0180915101981303C01092700029
:10038000F79A809155018834A9F490914F0180919A
:10039000510198130FC09091560180915603981304
:1003A00009C09091570180915703981303C0109290
:1003B0007000F79A10927000F69810925401109203
:1003C0004F01FF91EF919F918F910F900FBE0F9072
:1003D0001F9018951F920F920FB60F9211248F93B2
:1003E00080915201813059F41092520110925401BF
:1003F00010924F01F698F7981092700003C08F5F2B
:10040000809352018F910F900FBE0F901F901895FF
:100410001F920F920FB60F9211248F939F93EF9319
:10042000FF9380E48093C00088E58093C100F59A33
:10043000E091530180914D01E817A0F4F0E0EC5AEF
:10044000FD4F808180934E018093C600E0914C0166
:1004500080914E01E827F0E0E859FF4FE491E093E6
:100460004C0106C0E8130AC080914C018093C6007D
:10047000809153018F5F8093530112C088E980936C
:10048000C100F5981092530110924C0180915803CD
:10049000E0915B03F0915C039081809589238083D8
:1004A000FF91EF919F918F910F900FBE0F901F9032
:1004B00018951092530110924C01E4E5F2E084810A
:1004C00080934D01A6E5B3E08C91818311968C91C8
:1004D000828380915803E0915B03F0915C039081EB
:1004E000892B808388E38093C1000895E4E5F2E0DE
:1004F00098E4908383836B5F64830C945902E4E5F2
:10050000F2E09AE8908383836B5F64830C945902D2
:1005100080916A03E0916F03F09170039081892BC1
:10052000808380E693EEA6E1B0E026E02A95F1F71D
:1005300000000197A109B109C1F780916A03E09118
:100540006F03F091700390818095892380830895D3
:100550006091530380915403A9E5B2E0E82FF09134
:1005600055039E2F981B961718F491919D93F9CFE0
:1005700085E00C947602CF93DF9300D000D01F92D9
:10058000CDB7DEB7809155018A3871F080916A034A
:10059000E0916F03F09170039081892B8083E0914B
:1005A0006403F091650342C019821A821B821C8287
:1005B0001D8280916A03E0916F03F0917003908136
:1005C000892B8083E0916403F09165039081809191
:1005D00063038923D9F289819A81AB81BC81019619
:1005E000A11DB11D89839A83AB83BC8389819A81C4
:1005F000AB81BC818032914AA740B10581F48091E2
:100600006A03E0916B03F0916C039081892B8083E6
:100610008D818F5F8D8319821A821B821C828D814E
:100620008F3009F443C0F79BCDCF40C090818091BB
:1006300063038923D9F38FEF9FE925E08150904030
:100640002040E1F700C0000060915A01609356031A
:1006500080915B018093570380E090E00E94370710
:100660006091570381E090E00E9437079091530317
:1006700080915403A9E5B2E0E82FF09155032E2FA5
:10068000281B291718F421912D93F9CF80916A0323
:10069000E0916F03F09170039081809589238083AE
:1006A0006091530386E00E947F020BC080916A0331
:1006B000E0916F03F091700390818095892380838E
:1006C000F7980F900F900F900F900F90DF91CF91B0
:1006D0000895CF93DF93C4E5D2E081E48D8382E077
:1006E00090E00E942F078E8362E081E0DF91CF913E
:1006F0000C947602F89498E088E10FB6F894A895E7
:10070000809360000FBE90936000FFCFF79B1AC0EC
:10071000F79880915801863079F030F4813051F0AB
:10072000853071F40C94A802873041F08F3F41F47A
:100730000E947A030C9469030C94BB020C94880207
:100740000C94460608950E9486030C94E805909345
:10075000550380935403615060935303089580912F
:100760006A03E0916F03F09170039081892B80837D
:10077000089580916A03E0916F03F0917003908176
:10078000809589238083089582E080936F00089587
:1007900010926F00089542980895429A08950E9419
:1007A000CB0386E08A95F1F700000C94CD034598C1
:1007B0000895459A089566E285E291E00E94A703B4
:1007C00045E250E05093700340936F0324E230E021
:1007D00030936E0320936D0383E290E090936C035B
:1007E00080936B0368E060936A03509369034093BE
:1007F00068033093670320936603909365038093A7
:10080000640384E0809363034BE250E050936203FF
:10081000409361032AE230E03093600320935F034A
:1008200091E090935D0392E090935E0350935C039C
:1008300040935B0330935A032093590380935803EA
:1008400087E480937C0087E880937A0087B18F6388
:1008500087B988B1846388B941981092800089E093
:100860008093810020E834E0309389002093880051
:1008700090936F000E94CF030C94D9030C94D9037A
:100880000C94D703419A089541980895811106C0A8
:10089000611102C00C9444040C944204089580FD3C
:1008A000409A86E08A95F1F700004098089580917B
:1008B0007A00806480937A0080917A0086FDFCCF74
:1008C000809178009091790008956B5FE62FF0E0B9
:1008D000EC5AFD4F8083918308954B5FE42FF0E045
:1008E000EC5AFD4F60837183828308950C946D04EC
:1008F0008B5FE82FF0E0EB5AFE4F20816181862F5D
:1009000090E0A0E0B0E04427582F692F7A2F828131
:1009100090E0A0E0B0E0DC0199278827840F951FC4
:10092000A61FB71FBC01CD01620F711D811D911D56
:1009300008950E9478046115710520E882079105E9
:1009400008F09A950895809172038F5F803309F4BF
:1009500080E090917303891721F08093720381E006
:10096000089580E00895EF92FF920F931F93CF9325
:10097000C0917203CF5FC03309F4C0E0809173036C
:10098000C81302C080E02FC0EC2EF12C80E00E9442
:100990009904DC01CB0122E0880F991FAA1FBB1F1D
:1009A0002A95D1F72BE02E9D80012F9D100D11244B
:1009B0000C581C4FF80180839183A283B38383E09A
:1009C0000E947804F80164837583868397838091FD
:1009D00060018087809161018187809162018287B7
:1009E000C093720381E0CF911F910F91FF90EF9020
:1009F0000895CF92DF92EF92FF92909173038091CE
:100A00007203981709F4BCC0809173038F5F803321
:100A100009F480E09BE0899FF0011124EC58FC4F21
:100A20009285913019F490938805AAC01092880598
:100A30002091710390917303291302C08093710375
:100A400080937303E09173038BE08E9FF001112478
:100A5000EC58FC4FC080D180E280F380E0917303BA
:100A60008E9FF0011124EC58FC4F8185813061F498
:100A70008091840590918505A0918605B0918705A8
:100A8000C81AD90AEA0AFB0A1C141D041E041F0412
:100A900034F461E080E00E94460481E00DC0F094EF
:100AA000E094D094C094C11CD11CE11CF11C60E006
:100AB00080E00E9446048FEF8093A205C0929A05C1
:100AC000D0929B05E0929C05F0929D05C092960500
:100AD000D0929705E0929805F092990510929E05A4
:100AE00010929F051092A0051092A105E09173034A
:100AF0008BE08E9FF0011124EC58FC4F9085909371
:100B00008905E09173038E9FF0011124EC58FC4F8E
:100B1000448155816681778176956795579547958C
:100B200040939205509393056093940570939505B7
:100B3000E09173038E9FF0011124EC58FC4F448127
:100B400055816681778140938A0550938B05609328
:100B50008C0570938D05E09173038E9FF001112435
:100B6000EC58FC4F84819581A681B78180938E05D6
:100B700090938F05A0939005B093910581E001C0FB
:100B800080E0FF90EF90DF90CF9008951F93CF9378
:100B9000DF93182FC4E5D2E06D83809189058E83A1
:100BA00060918E0570918F058091900590919105CF
:100BB00042E00E946D04809173038A8780917203E2
:100BC0008B8767E0812FDF91CF911F910C94760284
:100BD00008950E945704E4E5F2E08583968362E07D
:100BE0008BE00C94760280915A01882319F00E94C0
:100BF000D70302C00E94D90360E08CE00C94760217
:100C00000E94B304682F8DE00C94C6058091840582
:100C100090918505A0918605B0918705BC01CD0115
:100C200022E095958795779567952A95D1F740E0CD
:100C30000E946D0463E08EE00C94760261E08FE028
:100C40000C94C60580918805882321F010928500B8
:100C500010928400809171032BE0909172038913AC
:100C600003C08093710308958F5F803309F480E09F
:100C7000289FF0011124EC58FC4FDF011A96928551
:100C8000913059F7809371031C9208958C3071F064
:100C900028F4883099F08B3039F008958E3051F077
:100CA00038F08F3049F008950C94E9050C94F30561
:100CB0000C9400060C9406060C941E060C94220656
:100CC0001F920F920FB60F9211242F933F934F93C1
:100CD0005F936F937F938F939F93AF93BF93EF93A4
:100CE000FF9380918E0590918F05A0919005B09112
:100CF0009105892B8A2B8B2B09F495C080918E0549
:100D000090918F05A0919005B09191050197A1094F
:100D1000B10980938E0590938F05A0939005B093B1
:100D2000910580919A0590919B05A0919C05B091A9
:100D30009D0540919E0550919F056091A005709181
:100D4000A105840F951FA61FB71F80939E05909342
:100D50009F05A093A005B093A10540919E055091D9
:100D60009F056091A0057091A105809192059091D9
:100D70009305A0919405B091950584179507A60752
:100D8000B7070CF04CC040918A0550918B056091DB
:100D90008C0570918D0580919E0590919F05A09185
:100DA000A005B091A105841B950BA60BB70B8093F2
:100DB0009E0590939F05A093A005B093A1058091F7
:100DC000960590919705A0919805B0919905019786
:100DD000A109B1098093960590939705A093980572
:100DE000B09399058091A2054091840550918505A5
:100DF0006091860570918705992787FD9095A92FA9
:100E0000B92F840F951FA61FB71F80938405909359
:100E10008505A0938605B093870581E001C080E039
:100E20000E944F0406C00E94F904813011F40E9410
:100E3000D703FF91EF91BF91AF919F918F917F91D8
:100E40006F915F914F913F912F910F900FBE0F9037
:100E50001F9018950E94D3000E94A303FDCFF9991B
:100E6000FECF92BD81BDF89A992780B50895262FAF
:100E7000F999FECF92BD81BDF89A019700B4021690
:100E800039F01FBA20BD0FB6F894FA9AF99A0FBE3E
:100E90000895262FF999FECF1FBA92BD81BD20BDBE
:100EA0000FB6F894FA9AF99A0FBE01960895F8943D
:020EB000FFCF72
:100EB200687474703A2F2F74712E6D69742E656484
:100EC200752F67657374616C742F3038362D30302E
:100ED200302E707900687474703A2F2F7777772EDE
:100EE20066616275696E742E636F6D2F766E2F3038
:0C0EF20038362D303035622E707900004B
:00000001FF
