:107000000C94B4380C94D1380C94D1380C94D138F9
:107010000C94D1380C94D1380C94D1380C94D138CC
:107020000C94D1380C94ED390C94D1380C94D1389F
:107030000C94D1380C94D1380C94D1380C94D138AC
:107040000C94D1380C94D1380C947E390C940B3AB2
:107050000C940B3A0C94D1380C94D1380C94D13850
:107060000C94D1380C94D13800070E091C1B121552
:10707000383F363124232A2D70777E796C6B626518
:10708000484F464154535A5DE0E7EEE9FCFBF2F508
:10709000D8DFD6D1C4C3CACD90979E998C8B8285F8
:1070A000A8AFA6A1B4B3BABDC7C0C9CEDBDCD5D2E8
:1070B000FFF8F1F6E3E4EDEAB7B0B9BEABACA5A2D8
:1070C0008F88818693949D9A2720292E3B3C3532C8
:1070D0001F18111603040D0A5750595E4B4C4542B8
:1070E0006F68616673747D7A898E878095929B9CA8
:1070F000B1B6BFB8ADAAA3A4F9FEF7F0E5E2EBEC98
:10710000C1C6CFC8DDDAD3D4696E676075727B7C87
:1071100051565F584D4A4344191E171005020B0C77
:1071200021262F283D3A33344E49404752555C5B67
:107130007671787F6A6D64633E39303722252C2B57
:107140000601080F1A1D1413AEA9A0A7B2B5BCBB47
:107150009691989F8A8D8483DED9D0D7C2C5CCCB37
:10716000E6E1E8EFFAFDF4F311241FBECFEFD8E01B
:10717000DEBFCDBF11E0A0E0B1E0EEECF9E702C068
:1071800005900D92A436B107D9F713E0A4E6B1E05B
:1071900001C01D92AB38B107E1F70E94C63C0C94C8
:1071A000E53C0C9400380F931F93CF93DF9314BEEC
:1071B00088E10FB6F89480936000109260000FBED3
:1071C00085E290E090938A038093890384E290E0C3
:1071D000909388038093870383E290E090938603E3
:1071E0008093850380E2809384038BE290E0909308
:1071F0007C0380937B038AE290E090937A038093F0
:107200007903C2E0C0937803D1E0D093770389E09B
:1072100090E09093C5008093C40088E98093C100FA
:1072200086E08093C2001092B00084E08093B100A9
:107230001092700080E090E00E94CB3C00E713E0E9
:10724000F801808381E090E00E94CB3CF8018183CB
:10725000D5BFC5BF80E091E090936F0380936E032C
:1072600084E280936D030E947E3C80918403E091D0
:107270008703F09188039081892B80838091840318
:10728000E0918903F0918A0390818095892380831E
:1072900080917803E0917903F0917A039081892BB2
:1072A000808380917703E0917903F0917A03908154
:1072B00080958923808380917D03E0918003F09104
:1072C0008103908180958923808380917203E0916E
:1072D0007303F09174039081892B808380917203F2
:1072E000E0917503F09176039081809589238083E6
:1072F0007894DF91CF911F910F9108951F920F9273
:107300000FB60F9211248F939F93EF93FF931092D8
:10731000B20010926A0181E0809370008091C600F3
:1073200080936901E0916C01F0E0E359FE4F8083A6
:10733000F69A90916C01943029F4809169018093C0
:10734000680111C0943078F4E0916701809169017F
:10735000E827F0E0E859FF48E491E09367019F5F78
:1073600090936C0131C080916801981768F3809107
:107370006D018A3849F490916701809169019813F1
:1073800003C010927000F79A80916D018834A9F4BF
:10739000909167018091690198130FC090916E01DF
:1073A00080917003981309C090916F0180917103CF
:1073B000981303C010927000F79A10927000F6981C
:1073C00010926C0110926701FF91EF919F918F9144
:1073D0000F900FBE0F901F9018951F920F920FB62F
:1073E0000F9211248F9380916A01813059F4109289
:1073F0006A0110926C0110926701F698F79810924A
:10740000700003C08F5F80936A018F910F900FBE51
:107410000F901F9018951F920F920FB60F92112484
:107420008F939F93EF93FF9380E48093C00088E550
:107430008093C100F59AE0916B0180916501E81796
:10744000A0F4F0E0E459FD4F8081809366018093C1
:10745000C600E091640180916601E827F0E0E859F8
:10746000FF48E491E093640106C0E8130AC08091EC
:1074700064018093C60080916B018F5F80936B01E4
:1074800012C088E98093C100F59810926B011092A8
:10749000640180917203E0917503F091760390810D
:1074A000809589238083FF91EF919F918F910F9019
:1074B0000FBE0F901F90189510926B0110926401EF
:1074C000ECE6F2E0848180936501A0E7B3E08C9163
:1074D000818311968C91828380917203E091750370
:1074E000F09176039081892B808388E38093C1009B
:1074F0000895ECE6F2E098E4908383836B5F648305
:107500000C945C3AECE6F2E09AE8908383836B5F3C
:1075100064830C945C3A80918403E0918903F09138
:107520008A039081892B808380E693EEA6E1B0E008
:1075300026E02A95F1F700000197A109B109C1F7EA
:1075400080918403E0918903F0918A039081809572
:1075500089238083089560916D0380916E03A1E774
:10756000B2E0E82FF0916F039E2F981B961718F446
:1075700091919D93F9CF85E00C94793ACF93DF9365
:1075800000D000D01F92CDB7DEB780916D018A3850
:1075900071F080918403E0918903F0918A039081D6
:1075A000892B8083E0917E03F0917F0342C0198292
:1075B0001A821B821C821D8280918403E0918903C0
:1075C000F0918A039081892B8083E0917E03F09172
:1075D0007F03908180917D038923D9F289819A81EB
:1075E000AB81BC810196A11DB11D89839A83AB83B8
:1075F000BC8389819A81AB81BC818032914AA7404A
:10760000B10581F480918403E0918503F0918603B4
:107610009081892B80838D818F5F8D8319821A825F
:107620001B821C828D818F3009F443C0F79BCDCF24
:1076300040C0908180917D038923D9F38FEF9FE92A
:1076400025E0815090402040E1F700C000006091AB
:10765000720160937003809173018093710380E0E5
:1076600090E00E94D33C6091710381E090E00E9421
:10767000D33C90916D0380916E03A1E7B2E0E82FB7
:10768000F0916F032E2F281B291718F421912D93A9
:10769000F9CF80918403E0918903F0918A0390816E
:1076A00080958923808360916D0386E00E94823AF1
:1076B0000BC080918403E0918903F0918A0390814B
:1076C000809589238083F7980F900F900F900F90EB
:1076D0000F90DF91CF910895CF93DF93CCE6D2E066
:1076E00082E48D8382E090E00E94CB3C8E8362E056
:1076F00081E0DF91CF910C94793AF89498E088E199
:107700000FB6F894A895809360000FBE9093600028
:10771000FFCFF39A10926C0310926B0360E082E04B
:1077200090E00C94D33CF599FECFF8941092C100F0
:107730001092700081E085BF15BE0C940000089582
:107740008091720198E490936C0292E090936F02A2
:1077500098E090937002109272021092730281115D
:1077600007C085E0809371020E945C3A0C94893BCB
:10777000813039F489E0809371020E945C3A0C9464
:10778000933B08956FB7F894F999FECF07B600FCC4
:10779000FDCFF999FECF40916B0350916C0383E0CC
:1077A000FA0180935700E89507B600FCFDCF20E072
:1077B00030E071E0F901E359FE4FA085818590E04A
:1077C000982F88278A0F911D07B600FCFDCFF999E5
:1077D000FECFF901E40FF51F0C0170935700E895F7
:1077E00011242E5F3F4F2038310521F707B600FCEA
:1077F000FDCFF999FECF85E0FA0180935700E89517
:1078000007B600FCFDCF81E180935700E8956FBF7C
:1078100080916B0390916C0380589F4F90936C0301
:1078200080936B030895ECE6F2E088E4808383E0C4
:10783000838388E0848381E0858390916B038091CA
:107840006C03968387830E94C23B0C945C3A88E465
:1078500080936C0284E080936F0285E880937002CD
:10786000209172018091730190E0982F8827820FF8
:10787000911D20E030E0F901E80FF91FE491D901F2
:10788000A459BD4F1596EC932F5F3F4F203831051B
:1078900091F70C945C3AF79B24C0F79880917001A3
:1078A0008430D9F038F48230A1F0A8F48130B9F4F2
:1078B0000C946C3B863049F030F0873041F08F3FBC
:1078C00071F40E947D3B0C94AB3A0C94BE3A0C943C
:1078D0008B3A0C94A03B0C94133C0C94273C0C94D6
:1078E000C53C08950E944B3C0C94C43C90936F039C
:1078F00080936E03615060936D0308956FE385E29A
:1079000091E00E94763C45E250E050938A03409318
:10791000890324E230E0309388032093870383E2D5
:1079200090E0909386038093850368E060938403DE
:107930005093830340938203309381032093800309
:1079400090937F0380937E0384E080937D034BE2DA
:1079500050E050937C0340937B032AE230E0309365
:107960007A032093790391E09093770392E09093C8
:1079700078035093760340937503309374032093F8
:107980007303809372030895089508950E94D33875
:107990000E94723CFDCFF999FECF92BD81BDF89A4D
:1079A000992780B50895262FF999FECF92BD81BD04
:1079B000F89A019700B4021639F01FBA20BD0FB62D
:0E79C000F894FA9AF99A0FBE0895F894FFCF42
:1079CE00687474703A2F2F74712E6D69742E6564FD
:1079DE00752F67657374616C742F3038362D3030A7
:1079EE00302E707900687474703A2F2F7777772E57
:1079FE00666162756E69742E636F6D2F766E2F677A
:107A0E00656E657269634E6574776F726B656447F8
:107A1E00657374616C74426F6F746C6F61646572C0
:047A2E002E7079003D
:040000030000700089
:00000001FF
