:100000000C94B4000C94D1000C94D1000C94D10049
:100010000C94D1000C94D1000C94D1000C94D1001C
:100020000C94D1000C94EA010C94D1000C94D100F2
:100030000C94D1000C94D1000C94D1000C94D100FC
:100040000C94D1000C94D1000C947B010C94080208
:100050000C9408020C94D1000C94D1000C94D100A3
:100060000C94D1000C94D10000070E091C1B121532
:10007000383F363124232A2D70777E796C6B626588
:10008000484F464154535A5DE0E7EEE9FCFBF2F578
:10009000D8DFD6D1C4C3CACD90979E998C8B828568
:1000A000A8AFA6A1B4B3BABDC7C0C9CEDBDCD5D258
:1000B000FFF8F1F6E3E4EDEAB7B0B9BEABACA5A248
:1000C0008F88818693949D9A2720292E3B3C353238
:1000D0001F18111603040D0A5750595E4B4C454228
:1000E0006F68616673747D7A898E878095929B9C18
:1000F000B1B6BFB8ADAAA3A4F9FEF7F0E5E2EBEC08
:10010000C1C6CFC8DDDAD3D4696E676075727B7CF7
:1001100051565F584D4A4344191E171005020B0CE7
:1001200021262F283D3A33344E49404752555C5BD7
:100130007671787F6A6D64633E39303722252C2BC7
:100140000601080F1A1D1413AEA9A0A7B2B5BCBBB7
:100150009691989F8A8D8483DED9D0D7C2C5CCCBA7
:10016000E6E1E8EFFAFDF4F311241FBECFEFD8E08B
:10017000DEBFCDBF11E0A0E0B1E0E6E7F8E002C0ED
:1001800005900D92AA35B107D9F713E0AAE5B1E0C1
:1001900001C01D92AF37B107E1F70E940C040C9427
:1001A00039040C940000CF93DF9314BE88E10FB69E
:1001B000F89480936000109260000FBE85E290E09A
:1001C00090937E0380937D0384E290E090937C0380
:1001D00080937B0383E290E090937A03809379038A
:1001E00080E2809378038BE290E090937003809399
:1001F0006F038AE290E090936E0380936D0382E038
:1002000080936C0381E080936B0389E090E090938E
:10021000C5008093C40088E98093C10086E0809384
:10022000C2001092B00084E08093B1001092700080
:1002300080E090E00E941104C4E6D3E0888381E06E
:1002400090E00E94110489836AEA82E090E00E94B3
:100250002B0480E091E0909363038093620384E237
:10026000809361030E94AF0380917803E0917B0348
:10027000F0917C039081892B808380917803E091B9
:100280007D03F0917E039081809589238083809106
:100290006C03E0916D03F0916E039081892B808354
:1002A00080916B03E0916D03F0916E0390818095D6
:1002B0008923808380917103E0917403F091750329
:1002C000908180958923808380916603E091670304
:1002D000F09168039081892B808380916603E0917F
:1002E0006903F0916A0390818095892380837894D3
:1002F000DF91CF9108951F920F920FB60F921124A4
:100300008F939F93EF93FF931092B200109260012E
:1003100081E0809370008091C60080935F01E0913E
:100320006201F0E0ED59FE4F8083F69A90916201F0
:10033000943029F480915F0180935E0111C0943064
:1003400078F4E0915D0180915F01E827F0E0E859E1
:10035000FF4FE491E0935D019F5F9093620131C094
:1003600080915E01981768F3809163018A3849F49F
:1003700090915D0180915F01981303C0109270000D
:10038000F79A809163018834A9F490915D0180917E
:100390005F0198130FC090916401809164039813DA
:1003A00009C09091650180916503981303C0109274
:1003B0007000F79A10927000F698109262011092F5
:1003C0005D01FF91EF919F918F910F900FBE0F9064
:1003D0001F9018951F920F920FB60F9211248F93B2
:1003E00080916001813059F4109260011092620195
:1003F00010925D01F698F7981092700003C08F5F1D
:10040000809360018F910F900FBE0F901F901895F1
:100410001F920F920FB60F9211248F939F93EF9319
:10042000FF9380E48093C00088E58093C100F59A33
:10043000E091610180915B01E817A0F4F0E0EE59D2
:10044000FD4F808180935C018093C600E0915A014A
:1004500080915C01E827F0E0E859FF4FE491E093D8
:100460005A0106C0E8130AC080915A018093C60061
:10047000809161018F5F8093610112C088E9809350
:10048000C100F5981092610110925A0180916603A3
:10049000E0916903F0916A039081809589238083BC
:1004A000FF91EF919F918F910F900FBE0F901F9032
:1004B00018951092610110925A01E2E6F2E08481EF
:1004C00080935B01A4E6B3E08C91818311968C91BB
:1004D000828380916603E0916903F0916A039081C1
:1004E000892B808388E38093C1000895E2E6F2E0DF
:1004F00098E4908383836B5F64830C945902E2E6F3
:10050000F2E09AE8908383836B5F64830C945902D2
:1005100080917803E0917D03F0917E039081892B97
:10052000808380E693EEA6E1B0E026E02A95F1F71D
:1005300000000197A109B109C1F780917803E0910A
:100540007D03F0917E0390818095892380830895B7
:100550006091610380916203A7E6B2E0E82FF09119
:1005600063039E2F981B961718F491919D93F9CFD2
:1005700085E00C947602CF93DF9300D000D01F92D9
:10058000CDB7DEB7809163018A3871F0809178032E
:10059000E0917D03F0917E039081892B8083E0912F
:1005A0007203F091730342C019821A821B821C826B
:1005B0001D8280917803E0917D03F0917E0390810C
:1005C000892B8083E0917203F09173039081809175
:1005D00071038923D9F289819A81AB81BC8101960B
:1005E000A11DB11D89839A83AB83BC8389819A81C4
:1005F000AB81BC818032914AA740B10581F48091E2
:100600007803E0917903F0917A039081892B8083BC
:100610008D818F5F8D8319821A821B821C828D814E
:100620008F3009F443C0F79BCDCF40C090818091BB
:1006300071038923D9F38FEF9FE925E08150904022
:100640002040E1F700C000006091680160936403FE
:10065000809169018093650380E090E00E94190415
:100660006091650381E090E00E941904909161031C
:1006700080916203A7E6B2E0E82FF09163032E2F8A
:10068000281B291718F421912D93F9CF8091780315
:10069000E0917D03F0917E03908180958923808392
:1006A0006091610386E00E947F020BC08091780315
:1006B000E0917D03F0917E03908180958923808372
:1006C000F7980F900F900F900F900F90DF91CF91B0
:1006D0000895CF93DF93C2E6D2E081E48D8382E078
:1006E00090E00E9411048E8362E081E0DF91CF915F
:1006F0000C947602F89498E088E10FB6F894A895E7
:10070000809360000FBE90936000FFCFF79B1AC0EC
:10071000F79880916601863079F030F4813051F09D
:10072000853071F40C94A802873041F08F3F41F47A
:100730000E947A030C9469030C94BB020C94880207
:100740000C94070408950E9486030C94F50390937B
:10075000630380936203615060936103089562E3D1
:1007600087E291E00E94A70345E250E050937E03A8
:1007700040937D0324E230E030937C0320937B039D
:1007800083E290E090937A038093790368E060932A
:100790007803509377034093760330937503209347
:1007A0007403909373038093720384E080937103C6
:1007B0004BE250E05093700340936F032AE230E025
:1007C00030936E0320936D0391E090936B0392E05E
:1007D00090936C0350936A034093690330936803CA
:1007E000209367038093660308950895E09126019E
:1007F000F0E0ED59FE4F908180912501981719F096
:100800006091680101C060E08AE00C9476028A3051
:1008100011F40C94F60308950E94D3000E94A303E0
:10082000FDCFF999FECF92BD81BDF89A992780B589
:100830000895262FF999FECF92BD81BDF89A0197B0
:1008400000B4021639F01FBA20BD0FB6F894FA9A18
:10085000F99A0FBE0895262FF999FECF1FBA92BDBF
:1008600081BD20BD0FB6F894FA9AF99A0FBE019691
:060870000895F894FFCF8B
:10087600687474703A2F2F74712E6D69742E6564C6
:10088600752F67657374616C742F3038362D303070
:10089600302E7079000504687474703A2F2F7777BC
:1008A600772E666162756E69742E636F6D2F766E34
:1008B6002F67657374616C744E6F64655F636F6DEB
:0A08C6006D546573742E7079000004
:00000001FF
